<!DOCTYPE html><html><head>
<meta http-equiv="Content-Type" content="text/html; charset=utf-8"/>
<meta name="viewport" content="width=device-width, initial-scale=1"/>
<meta name="theme-color" content="#375EAB"/>

  <title>src/github.com/hashgraph/hedera-sdk-go/v2/ethereum_data_unit_test.go - GoPages</title>

<link type="text/css" rel="stylesheet" href="/lib/godoc/style.css"/>

<script>window.initFuncs = [];</script>
<script src="/lib/godoc/jquery.js" defer=""></script>




<script>var goVersion = "go1.19.6";</script>
<script src="/lib/godoc/godocs.js" defer=""></script>

</head>
<body>

<div id="lowframe" style="position: fixed; bottom: 0; left: 0; height: 0; width: 100%; border-top: thin solid grey; background-color: white; overflow: auto;">
...
</div><!-- #lowframe -->

<div id="topbar" class="wide"><div class="container">
<div class="top-heading" id="heading-wide"><a href="/pkg/github.com/hashgraph/hedera-sdk-go/v2/">GoPages | Auto-generated docs</a></div>
<div class="top-heading" id="heading-narrow"><a href="/pkg/github.com/hashgraph/hedera-sdk-go/v2/">GoPages</a></div>
<a href="#" id="menu-button"><span id="menu-button-arrow">▽</span></a>

</div></div>



<div id="page" class="wide">
<div class="container">


  <h1>
    Source file
    <a href="/src">src</a>/<a href="/src/github.com">github.com</a>/<a href="/src/github.com/hashgraph">hashgraph</a>/<a href="/src/github.com/hashgraph/hedera-sdk-go">hedera-sdk-go</a>/<a href="/src/github.com/hashgraph/hedera-sdk-go/v2">v2</a>/<span class="text-muted">ethereum_data_unit_test.go</span>
  </h1>





  <h2>
    Documentation: <a href="/pkg/github.com/hashgraph/hedera-sdk-go/v2">github.com/hashgraph/hedera-sdk-go/v2</a>
  </h2>



<div id="nav"></div>


<script type="text/javascript">document.ANALYSIS_DATA = null;</script>
<pre><span id="L1" class="ln">     1  </span><span class="comment">//go:build all || unit</span>
<span id="L2" class="ln">     2  </span><span class="comment">// +build all unit</span>
<span id="L3" class="ln">     3  </span>
<span id="L4" class="ln">     4  </span>package hedera
<span id="L5" class="ln">     5  </span>
<span id="L6" class="ln">     6  </span>import (
<span id="L7" class="ln">     7  </span>	&#34;encoding/hex&#34;
<span id="L8" class="ln">     8  </span>	&#34;testing&#34;
<span id="L9" class="ln">     9  </span>
<span id="L10" class="ln">    10  </span>	&#34;github.com/stretchr/testify/require&#34;
<span id="L11" class="ln">    11  </span>)
<span id="L12" class="ln">    12  </span>
<span id="L13" class="ln">    13  </span>func TestUnitEthereumData(t *testing.T) {
<span id="L14" class="ln">    14  </span>	byt, err := hex.DecodeString(&#34;02f87082012a022f2f83018000947e3a9eaf9bcc39e2ffa38eb30bf7a93feacbc181880de0b6b3a764000083123456c001a0df48f2efd10421811de2bfb125ab75b2d3c44139c4642837fb1fccce911fd479a01aaf7ae92bee896651dfc9d99ae422a296bf5d9f1ca49b2d96d82b79eb112d66&#34;)
<span id="L15" class="ln">    15  </span>	require.NoError(t, err)
<span id="L16" class="ln">    16  </span>	b, err := EthereumTransactionDataFromBytes(byt)
<span id="L17" class="ln">    17  </span>	require.NoError(t, err)
<span id="L18" class="ln">    18  </span>	k, err := b.ToBytes()
<span id="L19" class="ln">    19  </span>	require.Equal(t, hex.EncodeToString(k), &#34;02f87082012a022f2f83018000947e3a9eaf9bcc39e2ffa38eb30bf7a93feacbc181880de0b6b3a764000083123456c001a0df48f2efd10421811de2bfb125ab75b2d3c44139c4642837fb1fccce911fd479a01aaf7ae92bee896651dfc9d99ae422a296bf5d9f1ca49b2d96d82b79eb112d66&#34;)
<span id="L20" class="ln">    20  </span>}
<span id="L21" class="ln">    21  </span>
<span id="L22" class="ln">    22  </span>func TestUnitEthereumJson(t *testing.T) {
<span id="L23" class="ln">    23  </span>	byt, err := hex.DecodeString(&#34;02f87082012a022f2f83018000947e3a9eaf9bcc39e2ffa38eb30bf7a93feacbc181880de0b6b3a764000083123456c001a0df48f2efd10421811de2bfb125ab75b2d3c44139c4642837fb1fccce911fd479a01aaf7ae92bee896651dfc9d99ae422a296bf5d9f1ca49b2d96d82b79eb112d66&#34;)
<span id="L24" class="ln">    24  </span>	require.NoError(t, err)
<span id="L25" class="ln">    25  </span>	b, err := EthereumTransactionDataFromBytes(byt)
<span id="L26" class="ln">    26  </span>	require.NoError(t, err)
<span id="L27" class="ln">    27  </span>	k, err := b.ToJson()
<span id="L28" class="ln">    28  </span>	require.Equal(t, string(k), &#34;{\&#34;ChainID\&#34;:298,\&#34;Nonce\&#34;:2,\&#34;GasTipCap\&#34;:47,\&#34;GasFeeCap\&#34;:47,\&#34;Gas\&#34;:98304,\&#34;To\&#34;:\&#34;0x7e3a9eaf9bcc39e2ffa38eb30bf7a93feacbc181\&#34;,\&#34;Value\&#34;:1000000000000000000,\&#34;Data\&#34;:\&#34;EjRW\&#34;,\&#34;AccessList\&#34;:[],\&#34;v\&#34;:1,\&#34;r\&#34;:100994654910787593347140909067229841565925886199208140719315441876745360233593,\&#34;s\&#34;:12070180598849582105957204602453860723012110108194703753759584093273689501030}&#34;)
<span id="L29" class="ln">    29  </span>	second, err := EthereumTransactionDataFromJson(k)
<span id="L30" class="ln">    30  </span>	require.NoError(t, err)
<span id="L31" class="ln">    31  </span>	bytSecond, err := second.ToBytes()
<span id="L32" class="ln">    32  </span>	require.NoError(t, err)
<span id="L33" class="ln">    33  </span>	require.Equal(t, hex.EncodeToString(bytSecond), &#34;02f87082012a022f2f83018000947e3a9eaf9bcc39e2ffa38eb30bf7a93feacbc181880de0b6b3a764000083123456c001a0df48f2efd10421811de2bfb125ab75b2d3c44139c4642837fb1fccce911fd479a01aaf7ae92bee896651dfc9d99ae422a296bf5d9f1ca49b2d96d82b79eb112d66&#34;)
<span id="L34" class="ln">    34  </span>}
<span id="L35" class="ln">    35  </span>
</pre><p></p>

<div id="footer">
Build version go1.19.6.<br/>
</div>

</div><!-- .container -->
</div><!-- #page -->


</body></html>